{
  "_format": "hh-sol-artifact-1",
  "contractName": "WasteManagement",
  "sourceName": "contracts/WasteManagement.sol",
  "abi": [
    {
      "inputs": [],
      "stateMutability": "nonpayable",
      "type": "constructor"
    },
    {
      "anonymous": false,
      "inputs": [
        {
          "indexed": true,
          "internalType": "address",
          "name": "user",
          "type": "address"
        },
        {
          "indexed": false,
          "internalType": "uint256",
          "name": "points",
          "type": "uint256"
        },
        {
          "indexed": false,
          "internalType": "uint256",
          "name": "ethAmount",
          "type": "uint256"
        }
      ],
      "name": "PointsConverted",
      "type": "event"
    },
    {
      "anonymous": false,
      "inputs": [
        {
          "indexed": true,
          "internalType": "address",
          "name": "user",
          "type": "address"
        },
        {
          "indexed": false,
          "internalType": "uint256",
          "name": "pointsUsed",
          "type": "uint256"
        }
      ],
      "name": "ProductRedeemed",
      "type": "event"
    },
    {
      "anonymous": false,
      "inputs": [
        {
          "indexed": true,
          "internalType": "address",
          "name": "user",
          "type": "address"
        },
        {
          "indexed": false,
          "internalType": "uint256",
          "name": "points",
          "type": "uint256"
        }
      ],
      "name": "RewardPointsAwarded",
      "type": "event"
    },
    {
      "anonymous": false,
      "inputs": [
        {
          "indexed": true,
          "internalType": "bytes32",
          "name": "role",
          "type": "bytes32"
        },
        {
          "indexed": true,
          "internalType": "bytes32",
          "name": "previousAdminRole",
          "type": "bytes32"
        },
        {
          "indexed": true,
          "internalType": "bytes32",
          "name": "newAdminRole",
          "type": "bytes32"
        }
      ],
      "name": "RoleAdminChanged",
      "type": "event"
    },
    {
      "anonymous": false,
      "inputs": [
        {
          "indexed": true,
          "internalType": "bytes32",
          "name": "role",
          "type": "bytes32"
        },
        {
          "indexed": true,
          "internalType": "address",
          "name": "account",
          "type": "address"
        },
        {
          "indexed": true,
          "internalType": "address",
          "name": "sender",
          "type": "address"
        }
      ],
      "name": "RoleGranted",
      "type": "event"
    },
    {
      "anonymous": false,
      "inputs": [
        {
          "indexed": true,
          "internalType": "bytes32",
          "name": "role",
          "type": "bytes32"
        },
        {
          "indexed": true,
          "internalType": "address",
          "name": "account",
          "type": "address"
        },
        {
          "indexed": true,
          "internalType": "address",
          "name": "sender",
          "type": "address"
        }
      ],
      "name": "RoleRevoked",
      "type": "event"
    },
    {
      "anonymous": false,
      "inputs": [
        {
          "indexed": true,
          "internalType": "uint256",
          "name": "id",
          "type": "uint256"
        },
        {
          "indexed": true,
          "internalType": "address",
          "name": "collector",
          "type": "address"
        },
        {
          "indexed": false,
          "internalType": "uint256",
          "name": "timestamp",
          "type": "uint256"
        }
      ],
      "name": "WasteCollected",
      "type": "event"
    },
    {
      "anonymous": false,
      "inputs": [
        {
          "indexed": true,
          "internalType": "uint256",
          "name": "id",
          "type": "uint256"
        },
        {
          "indexed": true,
          "internalType": "address",
          "name": "reporter",
          "type": "address"
        },
        {
          "indexed": false,
          "internalType": "string",
          "name": "location",
          "type": "string"
        },
        {
          "indexed": false,
          "internalType": "string",
          "name": "wasteType",
          "type": "string"
        },
        {
          "indexed": false,
          "internalType": "uint256",
          "name": "timestamp",
          "type": "uint256"
        }
      ],
      "name": "WasteReported",
      "type": "event"
    },
    {
      "inputs": [],
      "name": "ADMIN_ROLE",
      "outputs": [
        {
          "internalType": "bytes32",
          "name": "",
          "type": "bytes32"
        }
      ],
      "stateMutability": "view",
      "type": "function"
    },
    {
      "inputs": [],
      "name": "COLLECTOR_ROLE",
      "outputs": [
        {
          "internalType": "bytes32",
          "name": "",
          "type": "bytes32"
        }
      ],
      "stateMutability": "view",
      "type": "function"
    },
    {
      "inputs": [],
      "name": "DEFAULT_ADMIN_ROLE",
      "outputs": [
        {
          "internalType": "bytes32",
          "name": "",
          "type": "bytes32"
        }
      ],
      "stateMutability": "view",
      "type": "function"
    },
    {
      "inputs": [
        {
          "internalType": "uint256",
          "name": "reportId",
          "type": "uint256"
        }
      ],
      "name": "collectWaste",
      "outputs": [],
      "stateMutability": "nonpayable",
      "type": "function"
    },
    {
      "inputs": [],
      "name": "convertPointsToETH",
      "outputs": [],
      "stateMutability": "nonpayable",
      "type": "function"
    },
    {
      "inputs": [
        {
          "internalType": "bytes32",
          "name": "role",
          "type": "bytes32"
        }
      ],
      "name": "getRoleAdmin",
      "outputs": [
        {
          "internalType": "bytes32",
          "name": "",
          "type": "bytes32"
        }
      ],
      "stateMutability": "view",
      "type": "function"
    },
    {
      "inputs": [
        {
          "internalType": "address",
          "name": "user",
          "type": "address"
        }
      ],
      "name": "getUserPoints",
      "outputs": [
        {
          "internalType": "uint256",
          "name": "",
          "type": "uint256"
        }
      ],
      "stateMutability": "view",
      "type": "function"
    },
    {
      "inputs": [
        {
          "internalType": "address",
          "name": "user",
          "type": "address"
        }
      ],
      "name": "getUserReports",
      "outputs": [
        {
          "internalType": "uint256[]",
          "name": "",
          "type": "uint256[]"
        }
      ],
      "stateMutability": "view",
      "type": "function"
    },
    {
      "inputs": [
        {
          "internalType": "uint256",
          "name": "reportId",
          "type": "uint256"
        }
      ],
      "name": "getWasteReport",
      "outputs": [
        {
          "components": [
            {
              "internalType": "uint256",
              "name": "id",
              "type": "uint256"
            },
            {
              "internalType": "address",
              "name": "reporter",
              "type": "address"
            },
            {
              "components": [
                {
                  "internalType": "string",
                  "name": "latitude",
                  "type": "string"
                },
                {
                  "internalType": "string",
                  "name": "longitude",
                  "type": "string"
                },
                {
                  "internalType": "string",
                  "name": "locationAddress",
                  "type": "string"
                }
              ],
              "internalType": "struct WasteManagement.Location",
              "name": "location",
              "type": "tuple"
            },
            {
              "internalType": "enum WasteManagement.WasteCategory",
              "name": "wasteType",
              "type": "uint8"
            },
            {
              "internalType": "uint256",
              "name": "quantity",
              "type": "uint256"
            },
            {
              "internalType": "uint256",
              "name": "timestamp",
              "type": "uint256"
            },
            {
              "internalType": "bool",
              "name": "isCollected",
              "type": "bool"
            },
            {
              "internalType": "address",
              "name": "collector",
              "type": "address"
            },
            {
              "internalType": "uint256",
              "name": "collectionTimestamp",
              "type": "uint256"
            },
            {
              "internalType": "bool",
              "name": "isVerified",
              "type": "bool"
            },
            {
              "internalType": "uint256",
              "name": "rewardPoints",
              "type": "uint256"
            }
          ],
          "internalType": "struct WasteManagement.WasteReport",
          "name": "",
          "type": "tuple"
        }
      ],
      "stateMutability": "view",
      "type": "function"
    },
    {
      "inputs": [
        {
          "internalType": "address",
          "name": "collector",
          "type": "address"
        }
      ],
      "name": "grantCollectorRole",
      "outputs": [],
      "stateMutability": "nonpayable",
      "type": "function"
    },
    {
      "inputs": [
        {
          "internalType": "bytes32",
          "name": "role",
          "type": "bytes32"
        },
        {
          "internalType": "address",
          "name": "account",
          "type": "address"
        }
      ],
      "name": "grantRole",
      "outputs": [],
      "stateMutability": "nonpayable",
      "type": "function"
    },
    {
      "inputs": [
        {
          "internalType": "bytes32",
          "name": "role",
          "type": "bytes32"
        },
        {
          "internalType": "address",
          "name": "account",
          "type": "address"
        }
      ],
      "name": "hasRole",
      "outputs": [
        {
          "internalType": "bool",
          "name": "",
          "type": "bool"
        }
      ],
      "stateMutability": "view",
      "type": "function"
    },
    {
      "inputs": [
        {
          "internalType": "uint256",
          "name": "pointsRequired",
          "type": "uint256"
        }
      ],
      "name": "redeemProduct",
      "outputs": [],
      "stateMutability": "nonpayable",
      "type": "function"
    },
    {
      "inputs": [
        {
          "internalType": "bytes32",
          "name": "role",
          "type": "bytes32"
        },
        {
          "internalType": "address",
          "name": "account",
          "type": "address"
        }
      ],
      "name": "renounceRole",
      "outputs": [],
      "stateMutability": "nonpayable",
      "type": "function"
    },
    {
      "inputs": [
        {
          "internalType": "string",
          "name": "latitude",
          "type": "string"
        },
        {
          "internalType": "string",
          "name": "longitude",
          "type": "string"
        },
        {
          "internalType": "string",
          "name": "locationAddress",
          "type": "string"
        },
        {
          "internalType": "enum WasteManagement.WasteCategory",
          "name": "wasteType",
          "type": "uint8"
        },
        {
          "internalType": "uint256",
          "name": "quantity",
          "type": "uint256"
        }
      ],
      "name": "reportWaste",
      "outputs": [
        {
          "internalType": "uint256",
          "name": "",
          "type": "uint256"
        }
      ],
      "stateMutability": "nonpayable",
      "type": "function"
    },
    {
      "inputs": [
        {
          "internalType": "address",
          "name": "collector",
          "type": "address"
        }
      ],
      "name": "revokeCollectorRole",
      "outputs": [],
      "stateMutability": "nonpayable",
      "type": "function"
    },
    {
      "inputs": [
        {
          "internalType": "bytes32",
          "name": "role",
          "type": "bytes32"
        },
        {
          "internalType": "address",
          "name": "account",
          "type": "address"
        }
      ],
      "name": "revokeRole",
      "outputs": [],
      "stateMutability": "nonpayable",
      "type": "function"
    },
    {
      "inputs": [
        {
          "internalType": "bytes4",
          "name": "interfaceId",
          "type": "bytes4"
        }
      ],
      "name": "supportsInterface",
      "outputs": [
        {
          "internalType": "bool",
          "name": "",
          "type": "bool"
        }
      ],
      "stateMutability": "view",
      "type": "function"
    },
    {
      "inputs": [
        {
          "internalType": "address",
          "name": "",
          "type": "address"
        },
        {
          "internalType": "uint256",
          "name": "",
          "type": "uint256"
        }
      ],
      "name": "userReports",
      "outputs": [
        {
          "internalType": "uint256",
          "name": "",
          "type": "uint256"
        }
      ],
      "stateMutability": "view",
      "type": "function"
    },
    {
      "inputs": [
        {
          "internalType": "address",
          "name": "",
          "type": "address"
        }
      ],
      "name": "userRewardPoints",
      "outputs": [
        {
          "internalType": "uint256",
          "name": "",
          "type": "uint256"
        }
      ],
      "stateMutability": "view",
      "type": "function"
    },
    {
      "inputs": [
        {
          "internalType": "enum WasteManagement.WasteCategory",
          "name": "category",
          "type": "uint8"
        }
      ],
      "name": "wasteCategoryToString",
      "outputs": [
        {
          "internalType": "string",
          "name": "",
          "type": "string"
        }
      ],
      "stateMutability": "pure",
      "type": "function"
    },
    {
      "inputs": [
        {
          "internalType": "uint256",
          "name": "",
          "type": "uint256"
        }
      ],
      "name": "wasteReports",
      "outputs": [
        {
          "internalType": "uint256",
          "name": "id",
          "type": "uint256"
        },
        {
          "internalType": "address",
          "name": "reporter",
          "type": "address"
        },
        {
          "components": [
            {
              "internalType": "string",
              "name": "latitude",
              "type": "string"
            },
            {
              "internalType": "string",
              "name": "longitude",
              "type": "string"
            },
            {
              "internalType": "string",
              "name": "locationAddress",
              "type": "string"
            }
          ],
          "internalType": "struct WasteManagement.Location",
          "name": "location",
          "type": "tuple"
        },
        {
          "internalType": "enum WasteManagement.WasteCategory",
          "name": "wasteType",
          "type": "uint8"
        },
        {
          "internalType": "uint256",
          "name": "quantity",
          "type": "uint256"
        },
        {
          "internalType": "uint256",
          "name": "timestamp",
          "type": "uint256"
        },
        {
          "internalType": "bool",
          "name": "isCollected",
          "type": "bool"
        },
        {
          "internalType": "address",
          "name": "collector",
          "type": "address"
        },
        {
          "internalType": "uint256",
          "name": "collectionTimestamp",
          "type": "uint256"
        },
        {
          "internalType": "bool",
          "name": "isVerified",
          "type": "bool"
        },
        {
          "internalType": "uint256",
          "name": "rewardPoints",
          "type": "uint256"
        }
      ],
      "stateMutability": "view",
      "type": "function"
    },
    {
      "stateMutability": "payable",
      "type": "receive"
    }
  ],
  "bytecode": "0x60806040523480156200001157600080fd5b50600180819055506200002e6000801b336200006660201b60201c565b620000607fa49807205ce4d355092ef5a8a18f56e8913cf4a201fbe287825b095693c21775336200006660201b60201c565b620001df565b6200007882826200007c60201b60201c565b5050565b6200008e82826200016d60201b60201c565b6200016957600160008084815260200190815260200160002060000160008373ffffffffffffffffffffffffffffffffffffffff1673ffffffffffffffffffffffffffffffffffffffff16815260200190815260200160002060006101000a81548160ff0219169083151502179055506200010e620001d760201b60201c565b73ffffffffffffffffffffffffffffffffffffffff168173ffffffffffffffffffffffffffffffffffffffff16837f2f8788117e7eff1d82e926ec794901d17c78024a50270940304540a733656f0d60405160405180910390a45b5050565b600080600084815260200190815260200160002060000160008373ffffffffffffffffffffffffffffffffffffffff1673ffffffffffffffffffffffffffffffffffffffff16815260200190815260200160002060009054906101000a900460ff16905092915050565b600033905090565b61389a80620001ef6000396000f3fe6080604052600436106101395760003560e01c80637ce26644116100ab578063aeefe31f1161006f578063aeefe31f14610485578063c5df2882146104c2578063d3ddc5e4146104eb578063d547741f14610528578063d763bf7b14610551578063fa01b8851461058e57610140565b80637ce266441461038c57806386e90875146103c957806391d14854146103f25780639ca39ae91461042f578063a217fddf1461045a57610140565b806334795c56116100fd57806334795c561461025857806336568abe146102815780635a345e46146102aa5780635d96c038146102e757806370a05afc1461032457806375b238fc1461036157610140565b806301ffc9a7146101455780630cdd898214610182578063248a9ca3146101c95780632f2ff15d1461020657806330aaefda1461022f57610140565b3661014057005b600080fd5b34801561015157600080fd5b5061016c600480360381019061016791906122c9565b6105a5565b6040516101799190612311565b60405180910390f35b34801561018e57600080fd5b506101a960048036038101906101a49190612362565b61061f565b6040516101c09b9a99989796959493929190612544565b60405180910390f35b3480156101d557600080fd5b506101f060048036038101906101eb919061262c565b6108a0565b6040516101fd9190612668565b60405180910390f35b34801561021257600080fd5b5061022d600480360381019061022891906126af565b6108bf565b005b34801561023b57600080fd5b50610256600480360381019061025191906126ef565b6108e0565b005b34801561026457600080fd5b5061027f600480360381019061027a91906126ef565b610976565b005b34801561028d57600080fd5b506102a860048036038101906102a391906126af565b610a0c565b005b3480156102b657600080fd5b506102d160048036038101906102cc919061271c565b610a8f565b6040516102de919061275c565b60405180910390f35b3480156102f357600080fd5b5061030e600480360381019061030991906128d1565b610ac0565b60405161031b919061275c565b60405180910390f35b34801561033057600080fd5b5061034b600480360381019061034691906126ef565b610e97565b6040516103589190612a5e565b60405180910390f35b34801561036d57600080fd5b50610376610f2e565b6040516103839190612668565b60405180910390f35b34801561039857600080fd5b506103b360048036038101906103ae91906126ef565b610f52565b6040516103c0919061275c565b60405180910390f35b3480156103d557600080fd5b506103f060048036038101906103eb9190612362565b610f6a565b005b3480156103fe57600080fd5b50610419600480360381019061041491906126af565b6110a3565b6040516104269190612311565b60405180910390f35b34801561043b57600080fd5b5061044461110d565b6040516104519190612668565b60405180910390f35b34801561046657600080fd5b5061046f611131565b60405161047c9190612668565b60405180910390f35b34801561049157600080fd5b506104ac60048036038101906104a791906126ef565b611138565b6040516104b9919061275c565b60405180910390f35b3480156104ce57600080fd5b506104e960048036038101906104e49190612362565b611181565b005b3480156104f757600080fd5b50610512600480360381019061050d9190612a80565b6112c1565b60405161051f9190612af7565b60405180910390f35b34801561053457600080fd5b5061054f600480360381019061054a91906126af565b6115b9565b005b34801561055d57600080fd5b5061057860048036038101906105739190612362565b6115da565b6040516105859190612c93565b60405180910390f35b34801561059a57600080fd5b506105a3611921565b005b60007f7965db0b000000000000000000000000000000000000000000000000000000007bffffffffffffffffffffffffffffffffffffffffffffffffffffffff1916827bffffffffffffffffffffffffffffffffffffffffffffffffffffffff19161480610618575061061782611b65565b5b9050919050565b60036020528060005260406000206000915090508060000154908060010160009054906101000a900473ffffffffffffffffffffffffffffffffffffffff16908060020160405180606001604052908160008201805461067e90612ce4565b80601f01602080910402602001604051908101604052809291908181526020018280546106aa90612ce4565b80156106f75780601f106106cc576101008083540402835291602001916106f7565b820191906000526020600020905b8154815290600101906020018083116106da57829003601f168201915b5050505050815260200160018201805461071090612ce4565b80601f016020809104026020016040519081016040528092919081815260200182805461073c90612ce4565b80156107895780601f1061075e57610100808354040283529160200191610789565b820191906000526020600020905b81548152906001019060200180831161076c57829003601f168201915b505050505081526020016002820180546107a290612ce4565b80601f01602080910402602001604051908101604052809291908181526020018280546107ce90612ce4565b801561081b5780601f106107f05761010080835404028352916020019161081b565b820191906000526020600020905b8154815290600101906020018083116107fe57829003601f168201915b505050505081525050908060050160009054906101000a900460ff16908060060154908060070154908060080160009054906101000a900460ff16908060080160019054906101000a900473ffffffffffffffffffffffffffffffffffffffff169080600901549080600a0160009054906101000a900460ff169080600b015490508b565b6000806000838152602001908152602001600020600101549050919050565b6108c8826108a0565b6108d181611bcf565b6108db8383611be3565b505050565b61090a7fa49807205ce4d355092ef5a8a18f56e8913cf4a201fbe287825b095693c21775336110a3565b610949576040517f08c379a000000000000000000000000000000000000000000000000000000000815260040161094090612d61565b60405180910390fd5b6109737f14cf45180c3fcf249a5a305e9657ea05c14fd4f4e1800ee0216a8213091711d2826108bf565b50565b6109a07fa49807205ce4d355092ef5a8a18f56e8913cf4a201fbe287825b095693c21775336110a3565b6109df576040517f08c379a00000000000000000000000000000000000000000000000000000000081526004016109d690612d61565b60405180910390fd5b610a097f14cf45180c3fcf249a5a305e9657ea05c14fd4f4e1800ee0216a8213091711d2826115b9565b50565b610a14611cc3565b73ffffffffffffffffffffffffffffffffffffffff168173ffffffffffffffffffffffffffffffffffffffff1614610a81576040517f08c379a0000000000000000000000000000000000000000000000000000000008152600401610a7890612df3565b60405180910390fd5b610a8b8282611ccb565b5050565b60046020528160005260406000208181548110610aab57600080fd5b90600052602060002001600091509150505481565b6000610aca611dac565b60008651118015610adc575060008551115b610b1b576040517f08c379a0000000000000000000000000000000000000000000000000000000008152600401610b1290612e5f565b60405180910390fd5b60008211610b5e576040517f08c379a0000000000000000000000000000000000000000000000000000000008152600401610b5590612ecb565b60405180910390fd5b600680811115610b7157610b706124cd565b5b836006811115610b8457610b836124cd565b5b1115610bc5576040517f08c379a0000000000000000000000000000000000000000000000000000000008152600401610bbc90612f37565b60405180910390fd5b600060026000815480929190610bda90612f86565b9190505590506000600360008381526020019081526020016000209050818160000181905550338160010160006101000a81548173ffffffffffffffffffffffffffffffffffffffff021916908373ffffffffffffffffffffffffffffffffffffffff160217905550604051806060016040528089815260200188815260200187815250816002016000820151816000019081610c77919061317a565b506020820151816001019081610c8d919061317a565b506040820151816002019081610ca3919061317a565b50905050848160050160006101000a81548160ff02191690836006811115610cce57610ccd6124cd565b5b021790555083816006018190555042816007018190555060008160080160006101000a81548160ff021916908315150217905550600081600a0160006101000a81548160ff0219169083151502179055506000600a85610d2e919061324c565b9050600680811115610d4357610d426124cd565b5b866006811115610d5657610d556124cd565b5b03610d6f57600381610d68919061324c565b9050610dac565b60036006811115610d8357610d826124cd565b5b866006811115610d9657610d956124cd565b5b03610dab57600281610da8919061324c565b90505b5b8082600b0181905550600460003373ffffffffffffffffffffffffffffffffffffffff1673ffffffffffffffffffffffffffffffffffffffff1681526020019081526020016000208390806001815401808255809150506001900390600052602060002001600090919091909150553373ffffffffffffffffffffffffffffffffffffffff16837f10c394033f1d2720748bef6b63dc8d4ea9585627c80f28b8dec46645ec91330989610e5e8a6112c1565b42604051610e6e9392919061328e565b60405180910390a3610e803382611dfb565b829350505050610e8e611ea3565b95945050505050565b6060600460008373ffffffffffffffffffffffffffffffffffffffff1673ffffffffffffffffffffffffffffffffffffffff168152602001908152602001600020805480602002602001604051908101604052809291908181526020018280548015610f2257602002820191906000526020600020905b815481526020019060010190808311610f0e575b50505050509050919050565b7fa49807205ce4d355092ef5a8a18f56e8913cf4a201fbe287825b095693c2177581565b60056020528060005260406000206000915090505481565b610f72611dac565b80600560003373ffffffffffffffffffffffffffffffffffffffff1673ffffffffffffffffffffffffffffffffffffffff168152602001908152602001600020541015610ff4576040517f08c379a0000000000000000000000000000000000000000000000000000000008152600401610feb9061331f565b60405180910390fd5b80600560003373ffffffffffffffffffffffffffffffffffffffff1673ffffffffffffffffffffffffffffffffffffffff1681526020019081526020016000206000828254611043919061333f565b925050819055503373ffffffffffffffffffffffffffffffffffffffff167f187d1101e4f9bc5981e03089076f9eb482ee8f2199965a1c4a98f02883ca702382604051611090919061275c565b60405180910390a26110a0611ea3565b50565b600080600084815260200190815260200160002060000160008373ffffffffffffffffffffffffffffffffffffffff1673ffffffffffffffffffffffffffffffffffffffff16815260200190815260200160002060009054906101000a900460ff16905092915050565b7f14cf45180c3fcf249a5a305e9657ea05c14fd4f4e1800ee0216a8213091711d281565b6000801b81565b6000600560008373ffffffffffffffffffffffffffffffffffffffff1673ffffffffffffffffffffffffffffffffffffffff168152602001908152602001600020549050919050565b611189611dac565b60006003600083815260200190815260200160002090508060080160009054906101000a900460ff16156111f2576040517f08c379a00000000000000000000000000000000000000000000000000000000081526004016111e9906133bf565b60405180910390fd5b60018160080160006101000a81548160ff021916908315150217905550338160080160016101000a81548173ffffffffffffffffffffffffffffffffffffffff021916908373ffffffffffffffffffffffffffffffffffffffff1602179055504281600901819055503373ffffffffffffffffffffffffffffffffffffffff16827f3250f92b5d3ccfab398d50abdfeb659704d1bf450fc721d14f21d960bdf1038e426040516112a2919061275c565b60405180910390a36112b5336002611dfb565b506112be611ea3565b50565b6060600060068111156112d7576112d66124cd565b5b8260068111156112ea576112e96124cd565b5b0361132c576040518060400160405280600781526020017f4f7267616e69630000000000000000000000000000000000000000000000000081525090506115b4565b600160068111156113405761133f6124cd565b5b826006811115611353576113526124cd565b5b03611395576040518060400160405280600781526020017f506c61737469630000000000000000000000000000000000000000000000000081525090506115b4565b600260068111156113a9576113a86124cd565b5b8260068111156113bc576113bb6124cd565b5b036113fe576040518060400160405280600581526020017f4d6574616c00000000000000000000000000000000000000000000000000000081525090506115b4565b60036006811115611412576114116124cd565b5b826006811115611425576114246124cd565b5b03611467576040518060400160405280600a81526020017f456c656374726f6e69630000000000000000000000000000000000000000000081525090506115b4565b6004600681111561147b5761147a6124cd565b5b82600681111561148e5761148d6124cd565b5b036114d0576040518060400160405280600581526020017f506170657200000000000000000000000000000000000000000000000000000081525090506115b4565b600560068111156114e4576114e36124cd565b5b8260068111156114f7576114f66124cd565b5b03611539576040518060400160405280600581526020017f476c61737300000000000000000000000000000000000000000000000000000081525090506115b4565b60068081111561154c5761154b6124cd565b5b82600681111561155f5761155e6124cd565b5b036115a1576040518060400160405280600981526020017f48617a6172646f7573000000000000000000000000000000000000000000000081525090506115b4565b6040518060200160405280600081525090505b919050565b6115c2826108a0565b6115cb81611bcf565b6115d58383611ccb565b505050565b6115e261219a565b6003600083815260200190815260200160002060405180610160016040529081600082015481526020016001820160009054906101000a900473ffffffffffffffffffffffffffffffffffffffff1673ffffffffffffffffffffffffffffffffffffffff1673ffffffffffffffffffffffffffffffffffffffff1681526020016002820160405180606001604052908160008201805461168190612ce4565b80601f01602080910402602001604051908101604052809291908181526020018280546116ad90612ce4565b80156116fa5780601f106116cf576101008083540402835291602001916116fa565b820191906000526020600020905b8154815290600101906020018083116116dd57829003601f168201915b5050505050815260200160018201805461171390612ce4565b80601f016020809104026020016040519081016040528092919081815260200182805461173f90612ce4565b801561178c5780601f106117615761010080835404028352916020019161178c565b820191906000526020600020905b81548152906001019060200180831161176f57829003601f168201915b505050505081526020016002820180546117a590612ce4565b80601f01602080910402602001604051908101604052809291908181526020018280546117d190612ce4565b801561181e5780601f106117f35761010080835404028352916020019161181e565b820191906000526020600020905b81548152906001019060200180831161180157829003601f168201915b50505050508152505081526020016005820160009054906101000a900460ff1660068111156118505761184f6124cd565b5b6006811115611862576118616124cd565b5b815260200160068201548152602001600782015481526020016008820160009054906101000a900460ff161515151581526020016008820160019054906101000a900473ffffffffffffffffffffffffffffffffffffffff1673ffffffffffffffffffffffffffffffffffffffff1673ffffffffffffffffffffffffffffffffffffffff16815260200160098201548152602001600a820160009054906101000a900460ff16151515158152602001600b820154815250509050919050565b611929611dac565b6000600560003373ffffffffffffffffffffffffffffffffffffffff1673ffffffffffffffffffffffffffffffffffffffff168152602001908152602001600020549050600081116119b0576040517f08c379a00000000000000000000000000000000000000000000000000000000081526004016119a79061342b565b60405180910390fd5b60006103e866038d7ea4c68000836119c8919061324c565b6119d2919061347a565b905080471015611a17576040517f08c379a0000000000000000000000000000000000000000000000000000000008152600401611a0e906134f7565b60405180910390fd5b6000600560003373ffffffffffffffffffffffffffffffffffffffff1673ffffffffffffffffffffffffffffffffffffffff1681526020019081526020016000208190555060003373ffffffffffffffffffffffffffffffffffffffff1682604051611a8290613548565b60006040518083038185875af1925050503d8060008114611abf576040519150601f19603f3d011682016040523d82523d6000602084013e611ac4565b606091505b5050905080611b08576040517f08c379a0000000000000000000000000000000000000000000000000000000008152600401611aff906135a9565b60405180910390fd5b3373ffffffffffffffffffffffffffffffffffffffff167f6458c94e9777bbc30aee6f0b0a4509d5a7789f8cdfdedb960debd3573997540d8484604051611b509291906135c9565b60405180910390a2505050611b63611ea3565b565b60007f01ffc9a7000000000000000000000000000000000000000000000000000000007bffffffffffffffffffffffffffffffffffffffffffffffffffffffff1916827bffffffffffffffffffffffffffffffffffffffffffffffffffffffff1916149050919050565b611be081611bdb611cc3565b611eac565b50565b611bed82826110a3565b611cbf57600160008084815260200190815260200160002060000160008373ffffffffffffffffffffffffffffffffffffffff1673ffffffffffffffffffffffffffffffffffffffff16815260200190815260200160002060006101000a81548160ff021916908315150217905550611c64611cc3565b73ffffffffffffffffffffffffffffffffffffffff168173ffffffffffffffffffffffffffffffffffffffff16837f2f8788117e7eff1d82e926ec794901d17c78024a50270940304540a733656f0d60405160405180910390a45b5050565b600033905090565b611cd582826110a3565b15611da857600080600084815260200190815260200160002060000160008373ffffffffffffffffffffffffffffffffffffffff1673ffffffffffffffffffffffffffffffffffffffff16815260200190815260200160002060006101000a81548160ff021916908315150217905550611d4d611cc3565b73ffffffffffffffffffffffffffffffffffffffff168173ffffffffffffffffffffffffffffffffffffffff16837ff6391f5c32d9c69d2a47ea670b442974b53935d1edc7fd64eb21e047a839171b60405160405180910390a45b5050565b600260015403611df1576040517f08c379a0000000000000000000000000000000000000000000000000000000008152600401611de89061363e565b60405180910390fd5b6002600181905550565b80600560008473ffffffffffffffffffffffffffffffffffffffff1673ffffffffffffffffffffffffffffffffffffffff1681526020019081526020016000206000828254611e4a919061365e565b925050819055508173ffffffffffffffffffffffffffffffffffffffff167fd66ab36becaa23e8f72c763664525d2f375ef6f1fc0cfb2cf427a1fe2b966be882604051611e97919061275c565b60405180910390a25050565b60018081905550565b611eb682826110a3565b611f2d57611ec381611f31565b611ed18360001c6020611f5e565b604051602001611ee2929190613766565b6040516020818303038152906040526040517f08c379a0000000000000000000000000000000000000000000000000000000008152600401611f249190612af7565b60405180910390fd5b5050565b6060611f578273ffffffffffffffffffffffffffffffffffffffff16601460ff16611f5e565b9050919050565b606060006002836002611f71919061324c565b611f7b919061365e565b67ffffffffffffffff811115611f9457611f93612781565b5b6040519080825280601f01601f191660200182016040528015611fc65781602001600182028036833780820191505090505b5090507f300000000000000000000000000000000000000000000000000000000000000081600081518110611ffe57611ffd6137a0565b5b60200101907effffffffffffffffffffffffffffffffffffffffffffffffffffffffffffff1916908160001a9053507f780000000000000000000000000000000000000000000000000000000000000081600181518110612062576120616137a0565b5b60200101907effffffffffffffffffffffffffffffffffffffffffffffffffffffffffffff1916908160001a905350600060018460026120a2919061324c565b6120ac919061365e565b90505b600181111561214c577f3031323334353637383961626364656600000000000000000000000000000000600f8616601081106120ee576120ed6137a0565b5b1a60f81b828281518110612105576121046137a0565b5b60200101907effffffffffffffffffffffffffffffffffffffffffffffffffffffffffffff1916908160001a905350600485901c945080612145906137cf565b90506120af565b5060008414612190576040517f08c379a000000000000000000000000000000000000000000000000000000000815260040161218790613844565b60405180910390fd5b8091505092915050565b60405180610160016040528060008152602001600073ffffffffffffffffffffffffffffffffffffffff1681526020016121d261223c565b8152602001600060068111156121eb576121ea6124cd565b5b81526020016000815260200160008152602001600015158152602001600073ffffffffffffffffffffffffffffffffffffffff16815260200160008152602001600015158152602001600081525090565b60405180606001604052806060815260200160608152602001606081525090565b6000604051905090565b600080fd5b600080fd5b60007fffffffff0000000000000000000000000000000000000000000000000000000082169050919050565b6122a681612271565b81146122b157600080fd5b50565b6000813590506122c38161229d565b92915050565b6000602082840312156122df576122de612267565b5b60006122ed848285016122b4565b91505092915050565b60008115159050919050565b61230b816122f6565b82525050565b60006020820190506123266000830184612302565b92915050565b6000819050919050565b61233f8161232c565b811461234a57600080fd5b50565b60008135905061235c81612336565b92915050565b60006020828403121561237857612377612267565b5b60006123868482850161234d565b91505092915050565b6123988161232c565b82525050565b600073ffffffffffffffffffffffffffffffffffffffff82169050919050565b60006123c98261239e565b9050919050565b6123d9816123be565b82525050565b600081519050919050565b600082825260208201905092915050565b60005b838110156124195780820151818401526020810190506123fe565b60008484015250505050565b6000601f19601f8301169050919050565b6000612441826123df565b61244b81856123ea565b935061245b8185602086016123fb565b61246481612425565b840191505092915050565b6000606083016000830151848203600086015261248c8282612436565b915050602083015184820360208601526124a68282612436565b915050604083015184820360408601526124c08282612436565b9150508091505092915050565b7f4e487b7100000000000000000000000000000000000000000000000000000000600052602160045260246000fd5b6007811061250d5761250c6124cd565b5b50565b600081905061251e826124fc565b919050565b600061252e82612510565b9050919050565b61253e81612523565b82525050565b60006101608201905061255a600083018e61238f565b612567602083018d6123d0565b8181036040830152612579818c61246f565b9050612588606083018b612535565b612595608083018a61238f565b6125a260a083018961238f565b6125af60c0830188612302565b6125bc60e08301876123d0565b6125ca61010083018661238f565b6125d8610120830185612302565b6125e661014083018461238f565b9c9b505050505050505050505050565b6000819050919050565b612609816125f6565b811461261457600080fd5b50565b60008135905061262681612600565b92915050565b60006020828403121561264257612641612267565b5b600061265084828501612617565b91505092915050565b612662816125f6565b82525050565b600060208201905061267d6000830184612659565b92915050565b61268c816123be565b811461269757600080fd5b50565b6000813590506126a981612683565b92915050565b600080604083850312156126c6576126c5612267565b5b60006126d485828601612617565b92505060206126e58582860161269a565b9150509250929050565b60006020828403121561270557612704612267565b5b60006127138482850161269a565b91505092915050565b6000806040838503121561273357612732612267565b5b60006127418582860161269a565b92505060206127528582860161234d565b9150509250929050565b6000602082019050612771600083018461238f565b92915050565b600080fd5b600080fd5b7f4e487b7100000000000000000000000000000000000000000000000000000000600052604160045260246000fd5b6127b982612425565b810181811067ffffffffffffffff821117156127d8576127d7612781565b5b80604052505050565b60006127eb61225d565b90506127f782826127b0565b919050565b600067ffffffffffffffff82111561281757612816612781565b5b61282082612425565b9050602081019050919050565b82818337600083830152505050565b600061284f61284a846127fc565b6127e1565b90508281526020810184848401111561286b5761286a61277c565b5b61287684828561282d565b509392505050565b600082601f83011261289357612892612777565b5b81356128a384826020860161283c565b91505092915050565b600781106128b957600080fd5b50565b6000813590506128cb816128ac565b92915050565b600080600080600060a086880312156128ed576128ec612267565b5b600086013567ffffffffffffffff81111561290b5761290a61226c565b5b6129178882890161287e565b955050602086013567ffffffffffffffff8111156129385761293761226c565b5b6129448882890161287e565b945050604086013567ffffffffffffffff8111156129655761296461226c565b5b6129718882890161287e565b9350506060612982888289016128bc565b92505060806129938882890161234d565b9150509295509295909350565b600081519050919050565b600082825260208201905092915050565b6000819050602082019050919050565b6129d58161232c565b82525050565b60006129e783836129cc565b60208301905092915050565b6000602082019050919050565b6000612a0b826129a0565b612a1581856129ab565b9350612a20836129bc565b8060005b83811015612a51578151612a3888826129db565b9750612a43836129f3565b925050600181019050612a24565b5085935050505092915050565b60006020820190508181036000830152612a788184612a00565b905092915050565b600060208284031215612a9657612a95612267565b5b6000612aa4848285016128bc565b91505092915050565b600082825260208201905092915050565b6000612ac9826123df565b612ad38185612aad565b9350612ae38185602086016123fb565b612aec81612425565b840191505092915050565b60006020820190508181036000830152612b118184612abe565b905092915050565b612b22816123be565b82525050565b60006060830160008301518482036000860152612b458282612436565b91505060208301518482036020860152612b5f8282612436565b91505060408301518482036040860152612b798282612436565b9150508091505092915050565b612b8f81612523565b82525050565b612b9e816122f6565b82525050565b600061016083016000830151612bbd60008601826129cc565b506020830151612bd06020860182612b19565b5060408301518482036040860152612be88282612b28565b9150506060830151612bfd6060860182612b86565b506080830151612c1060808601826129cc565b5060a0830151612c2360a08601826129cc565b5060c0830151612c3660c0860182612b95565b5060e0830151612c4960e0860182612b19565b50610100830151612c5e6101008601826129cc565b50610120830151612c73610120860182612b95565b50610140830151612c886101408601826129cc565b508091505092915050565b60006020820190508181036000830152612cad8184612ba4565b905092915050565b7f4e487b7100000000000000000000000000000000000000000000000000000000600052602260045260246000fd5b60006002820490506001821680612cfc57607f821691505b602082108103612d0f57612d0e612cb5565b5b50919050565b7f4d75737420686176652061646d696e20726f6c65000000000000000000000000600082015250565b6000612d4b601483612aad565b9150612d5682612d15565b602082019050919050565b60006020820190508181036000830152612d7a81612d3e565b9050919050565b7f416363657373436f6e74726f6c3a2063616e206f6e6c792072656e6f756e636560008201527f20726f6c657320666f722073656c660000000000000000000000000000000000602082015250565b6000612ddd602f83612aad565b9150612de882612d81565b604082019050919050565b60006020820190508181036000830152612e0c81612dd0565b9050919050565b7f4c6f636174696f6e207265717569726564000000000000000000000000000000600082015250565b6000612e49601183612aad565b9150612e5482612e13565b602082019050919050565b60006020820190508181036000830152612e7881612e3c565b9050919050565b7f5175616e74697479206d7573742062652067726561746572207468616e203000600082015250565b6000612eb5601f83612aad565b9150612ec082612e7f565b602082019050919050565b60006020820190508181036000830152612ee481612ea8565b9050919050565b7f496e76616c696420776173746520747970650000000000000000000000000000600082015250565b6000612f21601283612aad565b9150612f2c82612eeb565b602082019050919050565b60006020820190508181036000830152612f5081612f14565b9050919050565b7f4e487b7100000000000000000000000000000000000000000000000000000000600052601160045260246000fd5b6000612f918261232c565b91507fffffffffffffffffffffffffffffffffffffffffffffffffffffffffffffffff8203612fc357612fc2612f57565b5b600182019050919050565b60008190508160005260206000209050919050565b60006020601f8301049050919050565b600082821b905092915050565b6000600883026130307fffffffffffffffffffffffffffffffffffffffffffffffffffffffffffffffff82612ff3565b61303a8683612ff3565b95508019841693508086168417925050509392505050565b6000819050919050565b600061307761307261306d8461232c565b613052565b61232c565b9050919050565b6000819050919050565b6130918361305c565b6130a561309d8261307e565b848454613000565b825550505050565b600090565b6130ba6130ad565b6130c5818484613088565b505050565b5b818110156130e9576130de6000826130b2565b6001810190506130cb565b5050565b601f82111561312e576130ff81612fce565b61310884612fe3565b81016020851015613117578190505b61312b61312385612fe3565b8301826130ca565b50505b505050565b600082821c905092915050565b600061315160001984600802613133565b1980831691505092915050565b600061316a8383613140565b9150826002028217905092915050565b613183826123df565b67ffffffffffffffff81111561319c5761319b612781565b5b6131a68254612ce4565b6131b18282856130ed565b600060209050601f8311600181146131e457600084156131d2578287015190505b6131dc858261315e565b865550613244565b601f1984166131f286612fce565b60005b8281101561321a578489015182556001820191506020850194506020810190506131f5565b868310156132375784890151613233601f891682613140565b8355505b6001600288020188555050505b505050505050565b60006132578261232c565b91506132628361232c565b92508282026132708161232c565b9150828204841483151761328757613286612f57565b5b5092915050565b600060608201905081810360008301526132a88186612abe565b905081810360208301526132bc8185612abe565b90506132cb604083018461238f565b949350505050565b7f496e73756666696369656e7420706f696e747300000000000000000000000000600082015250565b6000613309601383612aad565b9150613314826132d3565b602082019050919050565b60006020820190508181036000830152613338816132fc565b9050919050565b600061334a8261232c565b91506133558361232c565b925082820390508181111561336d5761336c612f57565b5b92915050565b7f576173746520616c726561647920636f6c6c6563746564000000000000000000600082015250565b60006133a9601783612aad565b91506133b482613373565b602082019050919050565b600060208201905081810360008301526133d88161339c565b9050919050565b7f4e6f20706f696e747320746f20636f6e76657274000000000000000000000000600082015250565b6000613415601483612aad565b9150613420826133df565b602082019050919050565b6000602082019050818103600083015261344481613408565b9050919050565b7f4e487b7100000000000000000000000000000000000000000000000000000000600052601260045260246000fd5b60006134858261232c565b91506134908361232c565b9250826134a05761349f61344b565b5b828204905092915050565b7f436f6e7472616374206c61636b73204554480000000000000000000000000000600082015250565b60006134e1601283612aad565b91506134ec826134ab565b602082019050919050565b60006020820190508181036000830152613510816134d4565b9050919050565b600081905092915050565b50565b6000613532600083613517565b915061353d82613522565b600082019050919050565b600061355382613525565b9150819050919050565b7f455448207472616e73666572206661696c656400000000000000000000000000600082015250565b6000613593601383612aad565b915061359e8261355d565b602082019050919050565b600060208201905081810360008301526135c281613586565b9050919050565b60006040820190506135de600083018561238f565b6135eb602083018461238f565b9392505050565b7f5265656e7472616e637947756172643a207265656e7472616e742063616c6c00600082015250565b6000613628601f83612aad565b9150613633826135f2565b602082019050919050565b600060208201905081810360008301526136578161361b565b9050919050565b60006136698261232c565b91506136748361232c565b925082820190508082111561368c5761368b612f57565b5b92915050565b600081905092915050565b7f416363657373436f6e74726f6c3a206163636f756e7420000000000000000000600082015250565b60006136d3601783613692565b91506136de8261369d565b601782019050919050565b60006136f4826123df565b6136fe8185613692565b935061370e8185602086016123fb565b80840191505092915050565b7f206973206d697373696e6720726f6c6520000000000000000000000000000000600082015250565b6000613750601183613692565b915061375b8261371a565b601182019050919050565b6000613771826136c6565b915061377d82856136e9565b915061378882613743565b915061379482846136e9565b91508190509392505050565b7f4e487b7100000000000000000000000000000000000000000000000000000000600052603260045260246000fd5b60006137da8261232c565b9150600082036137ed576137ec612f57565b5b600182039050919050565b7f537472696e67733a20686578206c656e67746820696e73756666696369656e74600082015250565b600061382e602083612aad565b9150613839826137f8565b602082019050919050565b6000602082019050818103600083015261385d81613821565b905091905056fea26469706673582212200eafef4fb9f389fa69c081fc79c99796978b3163b9a33c1a01b06fe17d0e61a664736f6c63430008120033",
  "linkReferences": {},
  "deployedLinkReferences": {}
}